{
    "_format": "hh-sol-artifact-1",
    "contractName": "AvatarMinter",
    "sourceName": "contracts/AvatarMinter.sol",
    "abi": [
        {
            "inputs": [],
            "stateMutability": "nonpayable",
            "type": "constructor"
        },
        {
            "inputs": [
                {
                    "internalType": "address",
                    "name": "sender",
                    "type": "address"
                },
                {
                    "internalType": "uint256",
                    "name": "tokenId",
                    "type": "uint256"
                },
                {
                    "internalType": "address",
                    "name": "owner",
                    "type": "address"
                }
            ],
            "name": "ERC721IncorrectOwner",
            "type": "error"
        },
        {
            "inputs": [
                {
                    "internalType": "address",
                    "name": "operator",
                    "type": "address"
                },
                {
                    "internalType": "uint256",
                    "name": "tokenId",
                    "type": "uint256"
                }
            ],
            "name": "ERC721InsufficientApproval",
            "type": "error"
        },
        {
            "inputs": [
                {
                    "internalType": "address",
                    "name": "approver",
                    "type": "address"
                }
            ],
            "name": "ERC721InvalidApprover",
            "type": "error"
        },
        {
            "inputs": [
                {
                    "internalType": "address",
                    "name": "operator",
                    "type": "address"
                }
            ],
            "name": "ERC721InvalidOperator",
            "type": "error"
        },
        {
            "inputs": [
                {
                    "internalType": "address",
                    "name": "owner",
                    "type": "address"
                }
            ],
            "name": "ERC721InvalidOwner",
            "type": "error"
        },
        {
            "inputs": [
                {
                    "internalType": "address",
                    "name": "receiver",
                    "type": "address"
                }
            ],
            "name": "ERC721InvalidReceiver",
            "type": "error"
        },
        {
            "inputs": [
                {
                    "internalType": "address",
                    "name": "sender",
                    "type": "address"
                }
            ],
            "name": "ERC721InvalidSender",
            "type": "error"
        },
        {
            "inputs": [
                {
                    "internalType": "uint256",
                    "name": "tokenId",
                    "type": "uint256"
                }
            ],
            "name": "ERC721NonexistentToken",
            "type": "error"
        },
        {
            "inputs": [
                {
                    "internalType": "address",
                    "name": "owner",
                    "type": "address"
                }
            ],
            "name": "OwnableInvalidOwner",
            "type": "error"
        },
        {
            "inputs": [
                {
                    "internalType": "address",
                    "name": "account",
                    "type": "address"
                }
            ],
            "name": "OwnableUnauthorizedAccount",
            "type": "error"
        },
        {
            "inputs": [],
            "name": "ReentrancyGuardReentrantCall",
            "type": "error"
        },
        {
            "anonymous": false,
            "inputs": [
                {
                    "indexed": true,
                    "internalType": "address",
                    "name": "owner",
                    "type": "address"
                },
                {
                    "indexed": true,
                    "internalType": "address",
                    "name": "approved",
                    "type": "address"
                },
                {
                    "indexed": true,
                    "internalType": "uint256",
                    "name": "tokenId",
                    "type": "uint256"
                }
            ],
            "name": "Approval",
            "type": "event"
        },
        {
            "anonymous": false,
            "inputs": [
                {
                    "indexed": true,
                    "internalType": "address",
                    "name": "owner",
                    "type": "address"
                },
                {
                    "indexed": true,
                    "internalType": "address",
                    "name": "operator",
                    "type": "address"
                },
                {
                    "indexed": false,
                    "internalType": "bool",
                    "name": "approved",
                    "type": "bool"
                }
            ],
            "name": "ApprovalForAll",
            "type": "event"
        },
        {
            "anonymous": false,
            "inputs": [
                {
                    "indexed": true,
                    "internalType": "address",
                    "name": "recipient",
                    "type": "address"
                },
                {
                    "indexed": true,
                    "internalType": "uint256",
                    "name": "tokenId",
                    "type": "uint256"
                },
                {
                    "indexed": false,
                    "internalType": "string",
                    "name": "tokenURI",
                    "type": "string"
                },
                {
                    "indexed": false,
                    "internalType": "bool",
                    "name": "soulbound",
                    "type": "bool"
                }
            ],
            "name": "AvatarMinted",
            "type": "event"
        },
        {
            "anonymous": false,
            "inputs": [
                {
                    "indexed": false,
                    "internalType": "uint256",
                    "name": "_fromTokenId",
                    "type": "uint256"
                },
                {
                    "indexed": false,
                    "internalType": "uint256",
                    "name": "_toTokenId",
                    "type": "uint256"
                }
            ],
            "name": "BatchMetadataUpdate",
            "type": "event"
        },
        {
            "anonymous": false,
            "inputs": [
                {
                    "indexed": false,
                    "internalType": "uint256",
                    "name": "_tokenId",
                    "type": "uint256"
                }
            ],
            "name": "MetadataUpdate",
            "type": "event"
        },
        {
            "anonymous": false,
            "inputs": [
                {
                    "indexed": true,
                    "internalType": "address",
                    "name": "previousOwner",
                    "type": "address"
                },
                {
                    "indexed": true,
                    "internalType": "address",
                    "name": "newOwner",
                    "type": "address"
                }
            ],
            "name": "OwnershipTransferred",
            "type": "event"
        },
        {
            "anonymous": false,
            "inputs": [
                {
                    "indexed": true,
                    "internalType": "address",
                    "name": "from",
                    "type": "address"
                },
                {
                    "indexed": true,
                    "internalType": "address",
                    "name": "to",
                    "type": "address"
                },
                {
                    "indexed": true,
                    "internalType": "uint256",
                    "name": "tokenId",
                    "type": "uint256"
                }
            ],
            "name": "Transfer",
            "type": "event"
        },
        {
            "inputs": [],
            "name": "MAX_SUPPLY",
            "outputs": [
                {
                    "internalType": "uint256",
                    "name": "",
                    "type": "uint256"
                }
            ],
            "stateMutability": "view",
            "type": "function"
        },
        {
            "inputs": [
                {
                    "internalType": "address",
                    "name": "to",
                    "type": "address"
                },
                {
                    "internalType": "uint256",
                    "name": "tokenId",
                    "type": "uint256"
                }
            ],
            "name": "approve",
            "outputs": [],
            "stateMutability": "nonpayable",
            "type": "function"
        },
        {
            "inputs": [
                {
                    "internalType": "address",
                    "name": "owner",
                    "type": "address"
                }
            ],
            "name": "balanceOf",
            "outputs": [
                {
                    "internalType": "uint256",
                    "name": "",
                    "type": "uint256"
                }
            ],
            "stateMutability": "view",
            "type": "function"
        },
        {
            "inputs": [
                {
                    "internalType": "uint256",
                    "name": "tokenId",
                    "type": "uint256"
                }
            ],
            "name": "getApproved",
            "outputs": [
                {
                    "internalType": "address",
                    "name": "",
                    "type": "address"
                }
            ],
            "stateMutability": "view",
            "type": "function"
        },
        {
            "inputs": [
                {
                    "internalType": "uint256",
                    "name": "tokenId",
                    "type": "uint256"
                }
            ],
            "name": "getMetadata",
            "outputs": [
                {
                    "components": [
                        {
                            "internalType": "string",
                            "name": "name",
                            "type": "string"
                        },
                        {
                            "internalType": "string",
                            "name": "description",
                            "type": "string"
                        },
                        {
                            "internalType": "string",
                            "name": "image",
                            "type": "string"
                        },
                        {
                            "internalType": "string",
                            "name": "external_url",
                            "type": "string"
                        },
                        {
                            "components": [
                                {
                                    "internalType": "string",
                                    "name": "trait_type",
                                    "type": "string"
                                },
                                {
                                    "internalType": "string",
                                    "name": "value",
                                    "type": "string"
                                }
                            ],
                            "internalType": "struct AvatarMinter.Attribute[]",
                            "name": "attributes",
                            "type": "tuple[]"
                        },
                        {
                            "internalType": "string",
                            "name": "animation_url",
                            "type": "string"
                        },
                        {
                            "internalType": "address",
                            "name": "creator",
                            "type": "address"
                        },
                        {
                            "internalType": "bool",
                            "name": "soulbound",
                            "type": "bool"
                        },
                        {
                            "internalType": "uint256",
                            "name": "timestamp",
                            "type": "uint256"
                        }
                    ],
                    "internalType": "struct AvatarMinter.AvatarMetadata",
                    "name": "",
                    "type": "tuple"
                }
            ],
            "stateMutability": "view",
            "type": "function"
        },
        {
            "inputs": [
                {
                    "internalType": "address",
                    "name": "owner",
                    "type": "address"
                },
                {
                    "internalType": "address",
                    "name": "operator",
                    "type": "address"
                }
            ],
            "name": "isApprovedForAll",
            "outputs": [
                {
                    "internalType": "bool",
                    "name": "",
                    "type": "bool"
                }
            ],
            "stateMutability": "view",
            "type": "function"
        },
        {
            "inputs": [
                {
                    "internalType": "address",
                    "name": "recipient",
                    "type": "address"
                },
                {
                    "internalType": "string",
                    "name": "tokenURI",
                    "type": "string"
                },
                {
                    "internalType": "bool",
                    "name": "soulbound",
                    "type": "bool"
                }
            ],
            "name": "mintAvatar",
            "outputs": [
                {
                    "internalType": "uint256",
                    "name": "",
                    "type": "uint256"
                }
            ],
            "stateMutability": "payable",
            "type": "function"
        },
        {
            "inputs": [],
            "name": "mintPrice",
            "outputs": [
                {
                    "internalType": "uint256",
                    "name": "",
                    "type": "uint256"
                }
            ],
            "stateMutability": "view",
            "type": "function"
        },
        {
            "inputs": [],
            "name": "name",
            "outputs": [
                {
                    "internalType": "string",
                    "name": "",
                    "type": "string"
                }
            ],
            "stateMutability": "view",
            "type": "function"
        },
        {
            "inputs": [],
            "name": "owner",
            "outputs": [
                {
                    "internalType": "address",
                    "name": "",
                    "type": "address"
                }
            ],
            "stateMutability": "view",
            "type": "function"
        },
        {
            "inputs": [
                {
                    "internalType": "uint256",
                    "name": "tokenId",
                    "type": "uint256"
                }
            ],
            "name": "ownerOf",
            "outputs": [
                {
                    "internalType": "address",
                    "name": "",
                    "type": "address"
                }
            ],
            "stateMutability": "view",
            "type": "function"
        },
        {
            "inputs": [],
            "name": "renounceOwnership",
            "outputs": [],
            "stateMutability": "nonpayable",
            "type": "function"
        },
        {
            "inputs": [
                {
                    "internalType": "address",
                    "name": "from",
                    "type": "address"
                },
                {
                    "internalType": "address",
                    "name": "to",
                    "type": "address"
                },
                {
                    "internalType": "uint256",
                    "name": "tokenId",
                    "type": "uint256"
                }
            ],
            "name": "safeTransferFrom",
            "outputs": [],
            "stateMutability": "nonpayable",
            "type": "function"
        },
        {
            "inputs": [
                {
                    "internalType": "address",
                    "name": "from",
                    "type": "address"
                },
                {
                    "internalType": "address",
                    "name": "to",
                    "type": "address"
                },
                {
                    "internalType": "uint256",
                    "name": "tokenId",
                    "type": "uint256"
                },
                {
                    "internalType": "bytes",
                    "name": "data",
                    "type": "bytes"
                }
            ],
            "name": "safeTransferFrom",
            "outputs": [],
            "stateMutability": "nonpayable",
            "type": "function"
        },
        {
            "inputs": [
                {
                    "internalType": "address",
                    "name": "operator",
                    "type": "address"
                },
                {
                    "internalType": "bool",
                    "name": "approved",
                    "type": "bool"
                }
            ],
            "name": "setApprovalForAll",
            "outputs": [],
            "stateMutability": "nonpayable",
            "type": "function"
        },
        {
            "inputs": [
                {
                    "internalType": "uint256",
                    "name": "tokenId",
                    "type": "uint256"
                },
                {
                    "internalType": "string",
                    "name": "name",
                    "type": "string"
                },
                {
                    "internalType": "string",
                    "name": "description",
                    "type": "string"
                },
                {
                    "internalType": "string",
                    "name": "image",
                    "type": "string"
                },
                {
                    "internalType": "string",
                    "name": "external_url",
                    "type": "string"
                },
                {
                    "components": [
                        {
                            "internalType": "string",
                            "name": "trait_type",
                            "type": "string"
                        },
                        {
                            "internalType": "string",
                            "name": "value",
                            "type": "string"
                        }
                    ],
                    "internalType": "struct AvatarMinter.Attribute[]",
                    "name": "attributes",
                    "type": "tuple[]"
                },
                {
                    "internalType": "string",
                    "name": "animation_url",
                    "type": "string"
                }
            ],
            "name": "setAvatarMetadata",
            "outputs": [],
            "stateMutability": "nonpayable",
            "type": "function"
        },
        {
            "inputs": [
                {
                    "internalType": "uint256",
                    "name": "newPrice",
                    "type": "uint256"
                }
            ],
            "name": "setMintPrice",
            "outputs": [],
            "stateMutability": "nonpayable",
            "type": "function"
        },
        {
            "inputs": [
                {
                    "internalType": "bytes4",
                    "name": "interfaceId",
                    "type": "bytes4"
                }
            ],
            "name": "supportsInterface",
            "outputs": [
                {
                    "internalType": "bool",
                    "name": "",
                    "type": "bool"
                }
            ],
            "stateMutability": "view",
            "type": "function"
        },
        {
            "inputs": [],
            "name": "symbol",
            "outputs": [
                {
                    "internalType": "string",
                    "name": "",
                    "type": "string"
                }
            ],
            "stateMutability": "view",
            "type": "function"
        },
        {
            "inputs": [
                {
                    "internalType": "uint256",
                    "name": "",
                    "type": "uint256"
                }
            ],
            "name": "tokenMetadata",
            "outputs": [
                {
                    "internalType": "string",
                    "name": "name",
                    "type": "string"
                },
                {
                    "internalType": "string",
                    "name": "description",
                    "type": "string"
                },
                {
                    "internalType": "string",
                    "name": "image",
                    "type": "string"
                },
                {
                    "internalType": "string",
                    "name": "external_url",
                    "type": "string"
                },
                {
                    "internalType": "string",
                    "name": "animation_url",
                    "type": "string"
                },
                {
                    "internalType": "address",
                    "name": "creator",
                    "type": "address"
                },
                {
                    "internalType": "bool",
                    "name": "soulbound",
                    "type": "bool"
                },
                {
                    "internalType": "uint256",
                    "name": "timestamp",
                    "type": "uint256"
                }
            ],
            "stateMutability": "view",
            "type": "function"
        },
        {
            "inputs": [
                {
                    "internalType": "uint256",
                    "name": "tokenId",
                    "type": "uint256"
                }
            ],
            "name": "tokenURI",
            "outputs": [
                {
                    "internalType": "string",
                    "name": "",
                    "type": "string"
                }
            ],
            "stateMutability": "view",
            "type": "function"
        },
        {
            "inputs": [],
            "name": "totalSupply",
            "outputs": [
                {
                    "internalType": "uint256",
                    "name": "",
                    "type": "uint256"
                }
            ],
            "stateMutability": "view",
            "type": "function"
        },
        {
            "inputs": [
                {
                    "internalType": "address",
                    "name": "from",
                    "type": "address"
                },
                {
                    "internalType": "address",
                    "name": "to",
                    "type": "address"
                },
                {
                    "internalType": "uint256",
                    "name": "tokenId",
                    "type": "uint256"
                }
            ],
            "name": "transferFrom",
            "outputs": [],
            "stateMutability": "nonpayable",
            "type": "function"
        },
        {
            "inputs": [
                {
                    "internalType": "address",
                    "name": "newOwner",
                    "type": "address"
                }
            ],
            "name": "transferOwnership",
            "outputs": [],
            "stateMutability": "nonpayable",
            "type": "function"
        },
        {
            "inputs": [],
            "name": "withdraw",
            "outputs": [],
            "stateMutability": "nonpayable",
            "type": "function"
        }
    ],
    "bytecode": "0x6080604052662386f26fc10000600a553480156200001c57600080fd5b50336040518060400160405280600981526020017f34563441766174617200000000000000000000000000000000000000000000008152506040518060400160405280600481526020017f345634410000000000000000000000000000000000000000000000000000000081525081600090816200009b91906200048d565b508060019081620000ad91906200048d565b505050600073ffffffffffffffffffffffffffffffffffffffff168173ffffffffffffffffffffffffffffffffffffffff1603620001255760006040517f1e4fbdf70000000000000000000000000000000000000000000000000000000081526004016200011c9190620005b9565b60405180910390fd5b62000136816200014d60201b60201c565b5060016008819055506000600981905550620005d6565b6000600760009054906101000a900473ffffffffffffffffffffffffffffffffffffffff16905081600760006101000a81548173ffffffffffffffffffffffffffffffffffffffff021916908373ffffffffffffffffffffffffffffffffffffffff1602179055508173ffffffffffffffffffffffffffffffffffffffff168173ffffffffffffffffffffffffffffffffffffffff167f8be0079c531659141344cd1fd0a4f28419497f9722a3daafe3b4186f6b6457e060405160405180910390a35050565b600081519050919050565b7f4e487b7100000000000000000000000000000000000000000000000000000000600052604160045260246000fd5b7f4e487b7100000000000000000000000000000000000000000000000000000000600052602260045260246000fd5b600060028204905060018216806200029557607f821691505b602082108103620002ab57620002aa6200024d565b5b50919050565b60008190508160005260206000209050919050565b60006020601f8301049050919050565b600082821b905092915050565b600060088302620003157fffffffffffffffffffffffffffffffffffffffffffffffffffffffffffffffff82620002d6565b620003218683620002d6565b95508019841693508086168417925050509392505050565b6000819050919050565b6000819050919050565b60006200036e62000368620003628462000339565b62000343565b62000339565b9050919050565b6000819050919050565b6200038a836200034d565b620003a2620003998262000375565b848454620002e3565b825550505050565b600090565b620003b9620003aa565b620003c68184846200037f565b505050565b5b81811015620003ee57620003e2600082620003af565b600181019050620003cc565b5050565b601f8211156200043d576200040781620002b1565b6200041284620002c6565b8101602085101562000422578190505b6200043a6200043185620002c6565b830182620003cb565b50505b505050565b600082821c905092915050565b6000620004626000198460080262000442565b1980831691505092915050565b60006200047d83836200044f565b9150826002028217905092915050565b620004988262000213565b67ffffffffffffffff811115620004b457620004b36200021e565b5b620004c082546200027c565b620004cd828285620003f2565b600060209050601f831160018114620005055760008415620004f0578287015190505b620004fc85826200046f565b8655506200056c565b601f1984166200051586620002b1565b60005b828110156200053f5784890151825560018201915060208501945060208101905062000518565b868310156200055f57848901516200055b601f8916826200044f565b8355505b6001600288020188555050505b505050505050565b600073ffffffffffffffffffffffffffffffffffffffff82169050919050565b6000620005a18262000574565b9050919050565b620005b38162000594565b82525050565b6000602082019050620005d06000830184620005a8565b92915050565b61439380620005e66000396000f3fe6080604052600436106101665760003560e01c80636914db60116100d1578063a574cea41161008a578063c87b56dd11610064578063c87b56dd14610536578063e985e9c514610573578063f2fde38b146105b0578063f4a0a528146105d957610166565b8063a574cea4146104a0578063b3847837146104dd578063b88d4fde1461050d57610166565b80636914db601461038957806370a08231146103cd578063715018a61461040a5780638da5cb5b1461042157806395d89b411461044c578063a22cb4651461047757610166565b806332cb6b0c1161012357806332cb6b0c1461028d5780633ccfd60b146102b857806342842e0e146102cf578063602dec95146102f85780636352211e146103215780636817c76c1461035e57610166565b806301ffc9a71461016b57806306fdde03146101a8578063081812fc146101d3578063095ea7b31461021057806318160ddd1461023957806323b872dd14610264575b600080fd5b34801561017757600080fd5b50610192600480360381019061018d9190612d8f565b610602565b60405161019f9190612dd7565b60405180910390f35b3480156101b457600080fd5b506101bd610663565b6040516101ca9190612e82565b60405180910390f35b3480156101df57600080fd5b506101fa60048036038101906101f59190612eda565b6106f5565b6040516102079190612f48565b60405180910390f35b34801561021c57600080fd5b5061023760048036038101906102329190612f8f565b610711565b005b34801561024557600080fd5b5061024e610727565b60405161025b9190612fde565b60405180910390f35b34801561027057600080fd5b5061028b60048036038101906102869190612ff9565b610731565b005b34801561029957600080fd5b506102a2610833565b6040516102af9190612fde565b60405180910390f35b3480156102c457600080fd5b506102cd610839565b005b3480156102db57600080fd5b506102f660048036038101906102f19190612ff9565b610950565b005b34801561030457600080fd5b5061031f600480360381019061031a91906132f9565b610970565b005b34801561032d57600080fd5b5061034860048036038101906103439190612eda565b610b10565b6040516103559190612f48565b60405180910390f35b34801561036a57600080fd5b50610373610b22565b6040516103809190612fde565b60405180910390f35b34801561039557600080fd5b506103b060048036038101906103ab9190612eda565b610b28565b6040516103c4989796959493929190613443565b60405180910390f35b3480156103d957600080fd5b506103f460048036038101906103ef91906134e4565b610e45565b6040516104019190612fde565b60405180910390f35b34801561041657600080fd5b5061041f610eff565b005b34801561042d57600080fd5b50610436610f13565b6040516104439190612f48565b60405180910390f35b34801561045857600080fd5b50610461610f3d565b60405161046e9190612e82565b60405180910390f35b34801561048357600080fd5b5061049e6004803603810190610499919061353d565b610fcf565b005b3480156104ac57600080fd5b506104c760048036038101906104c29190612eda565b610fe5565b6040516104d491906137e2565b60405180910390f35b6104f760048036038101906104f29190613804565b611562565b6040516105049190612fde565b60405180910390f35b34801561051957600080fd5b50610534600480360381019061052f9190613914565b6117e9565b005b34801561054257600080fd5b5061055d60048036038101906105589190612eda565b61180e565b60405161056a9190612e82565b60405180910390f35b34801561057f57600080fd5b5061059a60048036038101906105959190613997565b611921565b6040516105a79190612dd7565b60405180910390f35b3480156105bc57600080fd5b506105d760048036038101906105d291906134e4565b6119b5565b005b3480156105e557600080fd5b5061060060048036038101906105fb9190612eda565b611a3b565b005b6000634906490660e01b7bffffffffffffffffffffffffffffffffffffffffffffffffffffffff1916827bffffffffffffffffffffffffffffffffffffffffffffffffffffffff1916148061065c575061065b82611a4d565b5b9050919050565b60606000805461067290613a06565b80601f016020809104026020016040519081016040528092919081815260200182805461069e90613a06565b80156106eb5780601f106106c0576101008083540402835291602001916106eb565b820191906000526020600020905b8154815290600101906020018083116106ce57829003601f168201915b5050505050905090565b600061070082611b2f565b5061070a82611bb7565b9050919050565b610723828261071e611bf4565b611bfc565b5050565b6000600954905090565b600073ffffffffffffffffffffffffffffffffffffffff168273ffffffffffffffffffffffffffffffffffffffff16036107a35760006040517f64a0ae9200000000000000000000000000000000000000000000000000000000815260040161079a9190612f48565b60405180910390fd5b60006107b783836107b2611bf4565b611c0e565b90508373ffffffffffffffffffffffffffffffffffffffff168173ffffffffffffffffffffffffffffffffffffffff161461082d578382826040517f64283d7b00000000000000000000000000000000000000000000000000000000815260040161082493929190613a37565b60405180910390fd5b50505050565b61271081565b610841611d07565b610849611d8e565b600047905060008111610891576040517f08c379a000000000000000000000000000000000000000000000000000000000815260040161088890613aba565b60405180910390fd5b600061089b610f13565b73ffffffffffffffffffffffffffffffffffffffff16826040516108be90613b0b565b60006040518083038185875af1925050503d80600081146108fb576040519150601f19603f3d011682016040523d82523d6000602084013e610900565b606091505b5050905080610944576040517f08c379a000000000000000000000000000000000000000000000000000000000815260040161093b90613b6c565b60405180910390fd5b505061094e611dd4565b565b61096b838383604051806020016040528060008152506117e9565b505050565b610978611d07565b600073ffffffffffffffffffffffffffffffffffffffff1661099988611dde565b73ffffffffffffffffffffffffffffffffffffffff16036109ef576040517f08c379a00000000000000000000000000000000000000000000000000000000081526004016109e690613bd8565b60405180910390fd5b6000600b6000898152602001908152602001600020905086816000019081610a179190613da4565b5085816001019081610a299190613da4565b5084816002019081610a3b9190613da4565b5083816003019081610a4d9190613da4565b5081816005019081610a5f9190613da4565b50806004016000610a709190612c07565b60005b8351811015610b055781600401848281518110610a9357610a92613e76565b5b602002602001015190806001815401808255809150506001900390600052602060002090600202016000909190919091506000820151816000019081610ad99190613da4565b506020820151816001019081610aef9190613da4565b5050508080610afd90613ed4565b915050610a73565b505050505050505050565b6000610b1b82611b2f565b9050919050565b600a5481565b600b602052806000526040600020600091509050806000018054610b4b90613a06565b80601f0160208091040260200160405190810160405280929190818152602001828054610b7790613a06565b8015610bc45780601f10610b9957610100808354040283529160200191610bc4565b820191906000526020600020905b815481529060010190602001808311610ba757829003601f168201915b505050505090806001018054610bd990613a06565b80601f0160208091040260200160405190810160405280929190818152602001828054610c0590613a06565b8015610c525780601f10610c2757610100808354040283529160200191610c52565b820191906000526020600020905b815481529060010190602001808311610c3557829003601f168201915b505050505090806002018054610c6790613a06565b80601f0160208091040260200160405190810160405280929190818152602001828054610c9390613a06565b8015610ce05780601f10610cb557610100808354040283529160200191610ce0565b820191906000526020600020905b815481529060010190602001808311610cc357829003601f168201915b505050505090806003018054610cf590613a06565b80601f0160208091040260200160405190810160405280929190818152602001828054610d2190613a06565b8015610d6e5780601f10610d4357610100808354040283529160200191610d6e565b820191906000526020600020905b815481529060010190602001808311610d5157829003601f168201915b505050505090806005018054610d8390613a06565b80601f0160208091040260200160405190810160405280929190818152602001828054610daf90613a06565b8015610dfc5780601f10610dd157610100808354040283529160200191610dfc565b820191906000526020600020905b815481529060010190602001808311610ddf57829003601f168201915b5050505050908060060160009054906101000a900473ffffffffffffffffffffffffffffffffffffffff16908060060160149054906101000a900460ff16908060070154905088565b60008073ffffffffffffffffffffffffffffffffffffffff168273ffffffffffffffffffffffffffffffffffffffff1603610eb85760006040517f89c62b64000000000000000000000000000000000000000000000000000000008152600401610eaf9190612f48565b60405180910390fd5b600360008373ffffffffffffffffffffffffffffffffffffffff1673ffffffffffffffffffffffffffffffffffffffff168152602001908152602001600020549050919050565b610f07611d07565b610f116000611e1b565b565b6000600760009054906101000a900473ffffffffffffffffffffffffffffffffffffffff16905090565b606060018054610f4c90613a06565b80601f0160208091040260200160405190810160405280929190818152602001828054610f7890613a06565b8015610fc55780601f10610f9a57610100808354040283529160200191610fc5565b820191906000526020600020905b815481529060010190602001808311610fa857829003601f168201915b5050505050905090565b610fe1610fda611bf4565b8383611ee1565b5050565b610fed612c2b565b600073ffffffffffffffffffffffffffffffffffffffff1661100e83611dde565b73ffffffffffffffffffffffffffffffffffffffff1603611064576040517f08c379a000000000000000000000000000000000000000000000000000000000815260040161105b90613bd8565b60405180910390fd5b600b60008381526020019081526020016000206040518061012001604052908160008201805461109390613a06565b80601f01602080910402602001604051908101604052809291908181526020018280546110bf90613a06565b801561110c5780601f106110e15761010080835404028352916020019161110c565b820191906000526020600020905b8154815290600101906020018083116110ef57829003601f168201915b5050505050815260200160018201805461112590613a06565b80601f016020809104026020016040519081016040528092919081815260200182805461115190613a06565b801561119e5780601f106111735761010080835404028352916020019161119e565b820191906000526020600020905b81548152906001019060200180831161118157829003601f168201915b505050505081526020016002820180546111b790613a06565b80601f01602080910402602001604051908101604052809291908181526020018280546111e390613a06565b80156112305780601f1061120557610100808354040283529160200191611230565b820191906000526020600020905b81548152906001019060200180831161121357829003601f168201915b5050505050815260200160038201805461124990613a06565b80601f016020809104026020016040519081016040528092919081815260200182805461127590613a06565b80156112c25780601f10611297576101008083540402835291602001916112c2565b820191906000526020600020905b8154815290600101906020018083116112a557829003601f168201915b5050505050815260200160048201805480602002602001604051908101604052809291908181526020016000905b82821015611446578382906000526020600020906002020160405180604001604052908160008201805461132390613a06565b80601f016020809104026020016040519081016040528092919081815260200182805461134f90613a06565b801561139c5780601f106113715761010080835404028352916020019161139c565b820191906000526020600020905b81548152906001019060200180831161137f57829003601f168201915b505050505081526020016001820180546113b590613a06565b80601f01602080910402602001604051908101604052809291908181526020018280546113e190613a06565b801561142e5780601f106114035761010080835404028352916020019161142e565b820191906000526020600020905b81548152906001019060200180831161141157829003601f168201915b505050505081525050815260200190600101906112f0565b50505050815260200160058201805461145e90613a06565b80601f016020809104026020016040519081016040528092919081815260200182805461148a90613a06565b80156114d75780601f106114ac576101008083540402835291602001916114d7565b820191906000526020600020905b8154815290600101906020018083116114ba57829003601f168201915b505050505081526020016006820160009054906101000a900473ffffffffffffffffffffffffffffffffffffffff1673ffffffffffffffffffffffffffffffffffffffff1673ffffffffffffffffffffffffffffffffffffffff1681526020016006820160149054906101000a900460ff161515151581526020016007820154815250509050919050565b600061156c611d07565b611574611d8e565b600073ffffffffffffffffffffffffffffffffffffffff168473ffffffffffffffffffffffffffffffffffffffff16036115e3576040517f08c379a00000000000000000000000000000000000000000000000000000000081526004016115da90613f68565b60405180910390fd5b61271060095410611629576040517f08c379a000000000000000000000000000000000000000000000000000000000815260040161162090613fd4565b60405180910390fd5b600083511161166d576040517f08c379a000000000000000000000000000000000000000000000000000000000815260040161166490614040565b60405180910390fd5b600a543410156116b2576040517f08c379a00000000000000000000000000000000000000000000000000000000081526004016116a9906140ac565b60405180910390fd5b6001600960008282546116c591906140cc565b92505081905550600060095490506116dd8582612050565b6116e7818561206e565b82600b600083815260200190815260200160002060060160146101000a81548160ff02191690831515021790555084600b600083815260200190815260200160002060060160006101000a81548173ffffffffffffffffffffffffffffffffffffffff021916908373ffffffffffffffffffffffffffffffffffffffff16021790555042600b600083815260200190815260200160002060070181905550808573ffffffffffffffffffffffffffffffffffffffff167f07fa586b0e72a4c5cdf2e212bfb4e04a8a15da16815a3b4c7851013ada4bd47886866040516117ce929190614100565b60405180910390a3809150506117e2611dd4565b9392505050565b6117f4848484610731565b6118086117ff611bf4565b858585856120ca565b50505050565b606061181982611b2f565b50600060066000848152602001908152602001600020805461183a90613a06565b80601f016020809104026020016040519081016040528092919081815260200182805461186690613a06565b80156118b35780601f10611888576101008083540402835291602001916118b3565b820191906000526020600020905b81548152906001019060200180831161189657829003601f168201915b5050505050905060006118c461227b565b905060008151036118d957819250505061191c565b60008251111561190e5780826040516020016118f692919061416c565b6040516020818303038152906040529250505061191c565b61191784612292565b925050505b919050565b6000600560008473ffffffffffffffffffffffffffffffffffffffff1673ffffffffffffffffffffffffffffffffffffffff16815260200190815260200160002060008373ffffffffffffffffffffffffffffffffffffffff1673ffffffffffffffffffffffffffffffffffffffff16815260200190815260200160002060009054906101000a900460ff16905092915050565b6119bd611d07565b600073ffffffffffffffffffffffffffffffffffffffff168173ffffffffffffffffffffffffffffffffffffffff1603611a2f5760006040517f1e4fbdf7000000000000000000000000000000000000000000000000000000008152600401611a269190612f48565b60405180910390fd5b611a3881611e1b565b50565b611a43611d07565b80600a8190555050565b60007f80ac58cd000000000000000000000000000000000000000000000000000000007bffffffffffffffffffffffffffffffffffffffffffffffffffffffff1916827bffffffffffffffffffffffffffffffffffffffffffffffffffffffff19161480611b1857507f5b5e139f000000000000000000000000000000000000000000000000000000007bffffffffffffffffffffffffffffffffffffffffffffffffffffffff1916827bffffffffffffffffffffffffffffffffffffffffffffffffffffffff1916145b80611b285750611b27826122fb565b5b9050919050565b600080611b3b83611dde565b9050600073ffffffffffffffffffffffffffffffffffffffff168173ffffffffffffffffffffffffffffffffffffffff1603611bae57826040517f7e273289000000000000000000000000000000000000000000000000000000008152600401611ba59190612fde565b60405180910390fd5b80915050919050565b60006004600083815260200190815260200160002060009054906101000a900473ffffffffffffffffffffffffffffffffffffffff169050919050565b600033905090565b611c098383836001612365565b505050565b600080611c1a84611dde565b9050600073ffffffffffffffffffffffffffffffffffffffff168173ffffffffffffffffffffffffffffffffffffffff1614158015611c865750600073ffffffffffffffffffffffffffffffffffffffff168573ffffffffffffffffffffffffffffffffffffffff1614155b8015611cb25750600b600085815260200190815260200160002060060160149054906101000a900460ff165b15611cf2576040517f08c379a0000000000000000000000000000000000000000000000000000000008152600401611ce990614202565b60405180910390fd5b611cfd85858561252a565b9150509392505050565b611d0f611bf4565b73ffffffffffffffffffffffffffffffffffffffff16611d2d610f13565b73ffffffffffffffffffffffffffffffffffffffff1614611d8c57611d50611bf4565b6040517f118cdaa7000000000000000000000000000000000000000000000000000000008152600401611d839190612f48565b60405180910390fd5b565b600260085403611dca576040517f3ee5aeb500000000000000000000000000000000000000000000000000000000815260040160405180910390fd5b6002600881905550565b6001600881905550565b60006002600083815260200190815260200160002060009054906101000a900473ffffffffffffffffffffffffffffffffffffffff169050919050565b6000600760009054906101000a900473ffffffffffffffffffffffffffffffffffffffff16905081600760006101000a81548173ffffffffffffffffffffffffffffffffffffffff021916908373ffffffffffffffffffffffffffffffffffffffff1602179055508173ffffffffffffffffffffffffffffffffffffffff168173ffffffffffffffffffffffffffffffffffffffff167f8be0079c531659141344cd1fd0a4f28419497f9722a3daafe3b4186f6b6457e060405160405180910390a35050565b600073ffffffffffffffffffffffffffffffffffffffff168273ffffffffffffffffffffffffffffffffffffffff1603611f5257816040517f5b08ba18000000000000000000000000000000000000000000000000000000008152600401611f499190612f48565b60405180910390fd5b80600560008573ffffffffffffffffffffffffffffffffffffffff1673ffffffffffffffffffffffffffffffffffffffff16815260200190815260200160002060008473ffffffffffffffffffffffffffffffffffffffff1673ffffffffffffffffffffffffffffffffffffffff16815260200190815260200160002060006101000a81548160ff0219169083151502179055508173ffffffffffffffffffffffffffffffffffffffff168373ffffffffffffffffffffffffffffffffffffffff167f17307eab39ab6107e8899845ad3d59bd9653f200f220920489ca2b5937696c31836040516120439190612dd7565b60405180910390a3505050565b61206a828260405180602001604052806000815250612744565b5050565b8060066000848152602001908152602001600020908161208e9190613da4565b507ff8e1a15aba9398e019f0b49df1a4fde98ee17ae345cb5f6b5e2c27f5033e8ce7826040516120be9190612fde565b60405180910390a15050565b60008373ffffffffffffffffffffffffffffffffffffffff163b1115612274578273ffffffffffffffffffffffffffffffffffffffff1663150b7a02868685856040518563ffffffff1660e01b81526004016121299493929190614277565b6020604051808303816000875af192505050801561216557506040513d601f19601f8201168201806040525081019061216291906142d8565b60015b6121e9573d8060008114612195576040519150601f19603f3d011682016040523d82523d6000602084013e61219a565b606091505b5060008151036121e157836040517f64a0ae920000000000000000000000000000000000000000000000000000000081526004016121d89190612f48565b60405180910390fd5b805181602001fd5b63150b7a0260e01b7bffffffffffffffffffffffffffffffffffffffffffffffffffffffff1916817bffffffffffffffffffffffffffffffffffffffffffffffffffffffff19161461227257836040517f64a0ae920000000000000000000000000000000000000000000000000000000081526004016122699190612f48565b60405180910390fd5b505b5050505050565b606060405180602001604052806000815250905090565b606061229d82611b2f565b5060006122a861227b565b905060008151116122c857604051806020016040528060008152506122f3565b806122d284612768565b6040516020016122e392919061416c565b6040516020818303038152906040525b915050919050565b60007f01ffc9a7000000000000000000000000000000000000000000000000000000007bffffffffffffffffffffffffffffffffffffffffffffffffffffffff1916827bffffffffffffffffffffffffffffffffffffffffffffffffffffffff1916149050919050565b808061239e5750600073ffffffffffffffffffffffffffffffffffffffff168273ffffffffffffffffffffffffffffffffffffffff1614155b156124d25760006123ae84611b2f565b9050600073ffffffffffffffffffffffffffffffffffffffff168373ffffffffffffffffffffffffffffffffffffffff161415801561241957508273ffffffffffffffffffffffffffffffffffffffff168173ffffffffffffffffffffffffffffffffffffffff1614155b801561242c575061242a8184611921565b155b1561246e57826040517fa9fbf51f0000000000000000000000000000000000000000000000000000000081526004016124659190612f48565b60405180910390fd5b81156124d057838573ffffffffffffffffffffffffffffffffffffffff168273ffffffffffffffffffffffffffffffffffffffff167f8c5be1e5ebec7d5bd14f71427d1e84f3dd0314c0f7b2291e5b200ac8c7c3b92560405160405180910390a45b505b836004600085815260200190815260200160002060006101000a81548173ffffffffffffffffffffffffffffffffffffffff021916908373ffffffffffffffffffffffffffffffffffffffff16021790555050505050565b60008061253684611dde565b9050600073ffffffffffffffffffffffffffffffffffffffff168373ffffffffffffffffffffffffffffffffffffffff161461257857612577818486612836565b5b600073ffffffffffffffffffffffffffffffffffffffff168173ffffffffffffffffffffffffffffffffffffffff1614612609576125ba600085600080612365565b6001600360008373ffffffffffffffffffffffffffffffffffffffff1673ffffffffffffffffffffffffffffffffffffffff168152602001908152602001600020600082825403925050819055505b600073ffffffffffffffffffffffffffffffffffffffff168573ffffffffffffffffffffffffffffffffffffffff161461268c576001600360008773ffffffffffffffffffffffffffffffffffffffff1673ffffffffffffffffffffffffffffffffffffffff168152602001908152602001600020600082825401925050819055505b846002600086815260200190815260200160002060006101000a81548173ffffffffffffffffffffffffffffffffffffffff021916908373ffffffffffffffffffffffffffffffffffffffff160217905550838573ffffffffffffffffffffffffffffffffffffffff168273ffffffffffffffffffffffffffffffffffffffff167fddf252ad1be2c89b69c2b068fc378daa952ba7f163c4a11628f55a4df523b3ef60405160405180910390a4809150509392505050565b61274e83836128fa565b612763612759611bf4565b60008585856120ca565b505050565b606060006001612777846129f3565b01905060008167ffffffffffffffff81111561279657612795613056565b5b6040519080825280601f01601f1916602001820160405280156127c85781602001600182028036833780820191505090505b509050600082602001820190505b60011561282b578080600190039150507f3031323334353637383961626364656600000000000000000000000000000000600a86061a8153600a858161281f5761281e614305565b5b049450600085036127d6575b819350505050919050565b612841838383612b46565b6128f557600073ffffffffffffffffffffffffffffffffffffffff168373ffffffffffffffffffffffffffffffffffffffff16036128b657806040517f7e2732890000000000000000000000000000000000000000000000000000000081526004016128ad9190612fde565b60405180910390fd5b81816040517f177e802f0000000000000000000000000000000000000000000000000000000081526004016128ec929190614334565b60405180910390fd5b505050565b600073ffffffffffffffffffffffffffffffffffffffff168273ffffffffffffffffffffffffffffffffffffffff160361296c5760006040517f64a0ae920000000000000000000000000000000000000000000000000000000081526004016129639190612f48565b60405180910390fd5b600061297a83836000611c0e565b9050600073ffffffffffffffffffffffffffffffffffffffff168173ffffffffffffffffffffffffffffffffffffffff16146129ee5760006040517f73c6ac6e0000000000000000000000000000000000000000000000000000000081526004016129e59190612f48565b60405180910390fd5b505050565b600080600090507a184f03e93ff9f4daa797ed6e38ed64bf6a1f0100000000000000008310612a51577a184f03e93ff9f4daa797ed6e38ed64bf6a1f0100000000000000008381612a4757612a46614305565b5b0492506040810190505b6d04ee2d6d415b85acef81000000008310612a8e576d04ee2d6d415b85acef81000000008381612a8457612a83614305565b5b0492506020810190505b662386f26fc100008310612abd57662386f26fc100008381612ab357612ab2614305565b5b0492506010810190505b6305f5e1008310612ae6576305f5e1008381612adc57612adb614305565b5b0492506008810190505b6127108310612b0b576127108381612b0157612b00614305565b5b0492506004810190505b60648310612b2e5760648381612b2457612b23614305565b5b0492506002810190505b600a8310612b3d576001810190505b80915050919050565b60008073ffffffffffffffffffffffffffffffffffffffff168373ffffffffffffffffffffffffffffffffffffffff1614158015612bfe57508273ffffffffffffffffffffffffffffffffffffffff168473ffffffffffffffffffffffffffffffffffffffff161480612bbf5750612bbe8484611921565b5b80612bfd57508273ffffffffffffffffffffffffffffffffffffffff16612be583611bb7565b73ffffffffffffffffffffffffffffffffffffffff16145b5b90509392505050565b5080546000825560020290600052602060002090810190612c289190612c8f565b50565b604051806101200160405280606081526020016060815260200160608152602001606081526020016060815260200160608152602001600073ffffffffffffffffffffffffffffffffffffffff168152602001600015158152602001600081525090565b5b80821115612cc25760008082016000612ca99190612cc6565b600182016000612cb99190612cc6565b50600201612c90565b5090565b508054612cd290613a06565b6000825580601f10612ce45750612d03565b601f016020900490600052602060002090810190612d029190612d06565b5b50565b5b80821115612d1f576000816000905550600101612d07565b5090565b6000604051905090565b600080fd5b600080fd5b60007fffffffff0000000000000000000000000000000000000000000000000000000082169050919050565b612d6c81612d37565b8114612d7757600080fd5b50565b600081359050612d8981612d63565b92915050565b600060208284031215612da557612da4612d2d565b5b6000612db384828501612d7a565b91505092915050565b60008115159050919050565b612dd181612dbc565b82525050565b6000602082019050612dec6000830184612dc8565b92915050565b600081519050919050565b600082825260208201905092915050565b60005b83811015612e2c578082015181840152602081019050612e11565b60008484015250505050565b6000601f19601f8301169050919050565b6000612e5482612df2565b612e5e8185612dfd565b9350612e6e818560208601612e0e565b612e7781612e38565b840191505092915050565b60006020820190508181036000830152612e9c8184612e49565b905092915050565b6000819050919050565b612eb781612ea4565b8114612ec257600080fd5b50565b600081359050612ed481612eae565b92915050565b600060208284031215612ef057612eef612d2d565b5b6000612efe84828501612ec5565b91505092915050565b600073ffffffffffffffffffffffffffffffffffffffff82169050919050565b6000612f3282612f07565b9050919050565b612f4281612f27565b82525050565b6000602082019050612f5d6000830184612f39565b92915050565b612f6c81612f27565b8114612f7757600080fd5b50565b600081359050612f8981612f63565b92915050565b60008060408385031215612fa657612fa5612d2d565b5b6000612fb485828601612f7a565b9250506020612fc585828601612ec5565b9150509250929050565b612fd881612ea4565b82525050565b6000602082019050612ff36000830184612fcf565b92915050565b60008060006060848603121561301257613011612d2d565b5b600061302086828701612f7a565b935050602061303186828701612f7a565b925050604061304286828701612ec5565b9150509250925092565b600080fd5b600080fd5b7f4e487b7100000000000000000000000000000000000000000000000000000000600052604160045260246000fd5b61308e82612e38565b810181811067ffffffffffffffff821117156130ad576130ac613056565b5b80604052505050565b60006130c0612d23565b90506130cc8282613085565b919050565b600067ffffffffffffffff8211156130ec576130eb613056565b5b6130f582612e38565b9050602081019050919050565b82818337600083830152505050565b600061312461311f846130d1565b6130b6565b9050828152602081018484840111156131405761313f613051565b5b61314b848285613102565b509392505050565b600082601f8301126131685761316761304c565b5b8135613178848260208601613111565b91505092915050565b600067ffffffffffffffff82111561319c5761319b613056565b5b602082029050602081019050919050565b600080fd5b600080fd5b600080fd5b6000604082840312156131d2576131d16131b2565b5b6131dc60406130b6565b9050600082013567ffffffffffffffff8111156131fc576131fb6131b7565b5b61320884828501613153565b600083015250602082013567ffffffffffffffff81111561322c5761322b6131b7565b5b61323884828501613153565b60208301525092915050565b600061325761325284613181565b6130b6565b9050808382526020820190506020840283018581111561327a576132796131ad565b5b835b818110156132c157803567ffffffffffffffff81111561329f5761329e61304c565b5b8086016132ac89826131bc565b8552602085019450505060208101905061327c565b5050509392505050565b600082601f8301126132e0576132df61304c565b5b81356132f0848260208601613244565b91505092915050565b600080600080600080600060e0888a03121561331857613317612d2d565b5b60006133268a828b01612ec5565b975050602088013567ffffffffffffffff81111561334757613346612d32565b5b6133538a828b01613153565b965050604088013567ffffffffffffffff81111561337457613373612d32565b5b6133808a828b01613153565b955050606088013567ffffffffffffffff8111156133a1576133a0612d32565b5b6133ad8a828b01613153565b945050608088013567ffffffffffffffff8111156133ce576133cd612d32565b5b6133da8a828b01613153565b93505060a088013567ffffffffffffffff8111156133fb576133fa612d32565b5b6134078a828b016132cb565b92505060c088013567ffffffffffffffff81111561342857613427612d32565b5b6134348a828b01613153565b91505092959891949750929550565b600061010082019050818103600083015261345e818b612e49565b90508181036020830152613472818a612e49565b905081810360408301526134868189612e49565b9050818103606083015261349a8188612e49565b905081810360808301526134ae8187612e49565b90506134bd60a0830186612f39565b6134ca60c0830185612dc8565b6134d760e0830184612fcf565b9998505050505050505050565b6000602082840312156134fa576134f9612d2d565b5b600061350884828501612f7a565b91505092915050565b61351a81612dbc565b811461352557600080fd5b50565b60008135905061353781613511565b92915050565b6000806040838503121561355457613553612d2d565b5b600061356285828601612f7a565b925050602061357385828601613528565b9150509250929050565b600082825260208201905092915050565b600061359982612df2565b6135a3818561357d565b93506135b3818560208601612e0e565b6135bc81612e38565b840191505092915050565b600081519050919050565b600082825260208201905092915050565b6000819050602082019050919050565b60006040830160008301518482036000860152613610828261358e565b9150506020830151848203602086015261362a828261358e565b9150508091505092915050565b600061364383836135f3565b905092915050565b6000602082019050919050565b6000613663826135c7565b61366d81856135d2565b93508360208202850161367f856135e3565b8060005b858110156136bb578484038952815161369c8582613637565b94506136a78361364b565b925060208a01995050600181019050613683565b50829750879550505050505092915050565b6136d681612f27565b82525050565b6136e581612dbc565b82525050565b6136f481612ea4565b82525050565b6000610120830160008301518482036000860152613718828261358e565b91505060208301518482036020860152613732828261358e565b9150506040830151848203604086015261374c828261358e565b91505060608301518482036060860152613766828261358e565b915050608083015184820360808601526137808282613658565b91505060a083015184820360a086015261379a828261358e565b91505060c08301516137af60c08601826136cd565b5060e08301516137c260e08601826136dc565b506101008301516137d76101008601826136eb565b508091505092915050565b600060208201905081810360008301526137fc81846136fa565b905092915050565b60008060006060848603121561381d5761381c612d2d565b5b600061382b86828701612f7a565b935050602084013567ffffffffffffffff81111561384c5761384b612d32565b5b61385886828701613153565b925050604061386986828701613528565b9150509250925092565b600067ffffffffffffffff82111561388e5761388d613056565b5b61389782612e38565b9050602081019050919050565b60006138b76138b284613873565b6130b6565b9050828152602081018484840111156138d3576138d2613051565b5b6138de848285613102565b509392505050565b600082601f8301126138fb576138fa61304c565b5b813561390b8482602086016138a4565b91505092915050565b6000806000806080858703121561392e5761392d612d2d565b5b600061393c87828801612f7a565b945050602061394d87828801612f7a565b935050604061395e87828801612ec5565b925050606085013567ffffffffffffffff81111561397f5761397e612d32565b5b61398b878288016138e6565b91505092959194509250565b600080604083850312156139ae576139ad612d2d565b5b60006139bc85828601612f7a565b92505060206139cd85828601612f7a565b9150509250929050565b7f4e487b7100000000000000000000000000000000000000000000000000000000600052602260045260246000fd5b60006002820490506001821680613a1e57607f821691505b602082108103613a3157613a306139d7565b5b50919050565b6000606082019050613a4c6000830186612f39565b613a596020830185612fcf565b613a666040830184612f39565b949350505050565b7f4e6f2066756e647320746f207769746864726177000000000000000000000000600082015250565b6000613aa4601483612dfd565b9150613aaf82613a6e565b602082019050919050565b60006020820190508181036000830152613ad381613a97565b9050919050565b600081905092915050565b50565b6000613af5600083613ada565b9150613b0082613ae5565b600082019050919050565b6000613b1682613ae8565b9150819050919050565b7f4661696c656420746f2073656e64204574686572000000000000000000000000600082015250565b6000613b56601483612dfd565b9150613b6182613b20565b602082019050919050565b60006020820190508181036000830152613b8581613b49565b9050919050565b7f546f6b656e20646f6573206e6f74206578697374000000000000000000000000600082015250565b6000613bc2601483612dfd565b9150613bcd82613b8c565b602082019050919050565b60006020820190508181036000830152613bf181613bb5565b9050919050565b60008190508160005260206000209050919050565b60006020601f8301049050919050565b600082821b905092915050565b600060088302613c5a7fffffffffffffffffffffffffffffffffffffffffffffffffffffffffffffffff82613c1d565b613c648683613c1d565b95508019841693508086168417925050509392505050565b6000819050919050565b6000613ca1613c9c613c9784612ea4565b613c7c565b612ea4565b9050919050565b6000819050919050565b613cbb83613c86565b613ccf613cc782613ca8565b848454613c2a565b825550505050565b600090565b613ce4613cd7565b613cef818484613cb2565b505050565b5b81811015613d1357613d08600082613cdc565b600181019050613cf5565b5050565b601f821115613d5857613d2981613bf8565b613d3284613c0d565b81016020851015613d41578190505b613d55613d4d85613c0d565b830182613cf4565b50505b505050565b600082821c905092915050565b6000613d7b60001984600802613d5d565b1980831691505092915050565b6000613d948383613d6a565b9150826002028217905092915050565b613dad82612df2565b67ffffffffffffffff811115613dc657613dc5613056565b5b613dd08254613a06565b613ddb828285613d17565b600060209050601f831160018114613e0e5760008415613dfc578287015190505b613e068582613d88565b865550613e6e565b601f198416613e1c86613bf8565b60005b82811015613e4457848901518255600182019150602085019450602081019050613e1f565b86831015613e615784890151613e5d601f891682613d6a565b8355505b6001600288020188555050505b505050505050565b7f4e487b7100000000000000000000000000000000000000000000000000000000600052603260045260246000fd5b7f4e487b7100000000000000000000000000000000000000000000000000000000600052601160045260246000fd5b6000613edf82612ea4565b91507fffffffffffffffffffffffffffffffffffffffffffffffffffffffffffffffff8203613f1157613f10613ea5565b5b600182019050919050565b7f43616e6e6f74206d696e7420746f207a65726f20616464726573730000000000600082015250565b6000613f52601b83612dfd565b9150613f5d82613f1c565b602082019050919050565b60006020820190508181036000830152613f8181613f45565b9050919050565b7f4d6178696d756d20737570706c79207265616368656400000000000000000000600082015250565b6000613fbe601683612dfd565b9150613fc982613f88565b602082019050919050565b60006020820190508181036000830152613fed81613fb1565b9050919050565b7f546f6b656e205552492063616e6e6f7420626520656d70747900000000000000600082015250565b600061402a601983612dfd565b915061403582613ff4565b602082019050919050565b600060208201905081810360008301526140598161401d565b9050919050565b7f496e73756666696369656e74207061796d656e74000000000000000000000000600082015250565b6000614096601483612dfd565b91506140a182614060565b602082019050919050565b600060208201905081810360008301526140c581614089565b9050919050565b60006140d782612ea4565b91506140e283612ea4565b92508282019050808211156140fa576140f9613ea5565b5b92915050565b6000604082019050818103600083015261411a8185612e49565b90506141296020830184612dc8565b9392505050565b600081905092915050565b600061414682612df2565b6141508185614130565b9350614160818560208601612e0e565b80840191505092915050565b6000614178828561413b565b9150614184828461413b565b91508190509392505050565b7f536f756c626f756e6420746f6b656e732063616e6e6f74206265207472616e7360008201527f6665727265640000000000000000000000000000000000000000000000000000602082015250565b60006141ec602683612dfd565b91506141f782614190565b604082019050919050565b6000602082019050818103600083015261421b816141df565b9050919050565b600081519050919050565b600082825260208201905092915050565b600061424982614222565b614253818561422d565b9350614263818560208601612e0e565b61426c81612e38565b840191505092915050565b600060808201905061428c6000830187612f39565b6142996020830186612f39565b6142a66040830185612fcf565b81810360608301526142b8818461423e565b905095945050505050565b6000815190506142d281612d63565b92915050565b6000602082840312156142ee576142ed612d2d565b5b60006142fc848285016142c3565b91505092915050565b7f4e487b7100000000000000000000000000000000000000000000000000000000600052601260045260246000fd5b60006040820190506143496000830185612f39565b6143566020830184612fcf565b939250505056fea26469706673582212209203313fcee2892a8cb83740750e7d1371ad598e22e9a316ffa6bf4bdfd3941d64736f6c63430008140033",
    "linkReferences": {},
    "deployedLinkReferences": {}
}